:020000040800F2
:1000000000000000A500000800F002F800F03AF837
:100010000AA090E8000C82448344AAF10107DA4563
:1000200001D100F02FF8AFF2090EBAE80F0013F07B
:10003000010F18BFFB1A43F00103184738030000F3
:1000400058030000103A24BF78C878C1FAD8520784
:1000500024BF30C830C144BF04680C607047000042
:100060000023002400250026103A28BF78C1FBD8C1
:10007000520728BF30C148BF0B6070471FB51FBD76
:1000800010B510BD00F020F81146FFF7F7FF00F0A3
:1000900081F800F03EF803B4FFF7F2FF03BC00F074
:1000A0005FF80000DFF810D004480549054A00F069
:1000B000DFF800F06FF80000005000200000002082
:1000C0009403000804000000754600F02BF8AE46CB
:1000D00005006946534620F00700854618B020B554
:1000E00000F024F8BDE820404FF000064FF0000774
:1000F0004FF000084FF0000B21F00701AC46ACE8D0
:10010000C009ACE8C009ACE8C009ACE8C0098D463C
:10011000704710B50446AFF300802046BDE810409C
:10012000FFF7B9BF004870470400002000B54FF04A
:10013000160085B0694601AA0A60ABBE0198002886
:1001400002BF0548C01D20F007000399029A049BD6
:1001500005B000BD0900000000000000704700006D
:1001600001491820ABBEFEE72600020001B500BF22
:100170000098411E00910028FAD108BD044900BF33
:10018000086800F020000028FAD048687047000096
:100190000038014000F0C4F80120FFF7E7FF3120EC
:1001A00000F084F8302000F081F8302000F07EF874
:1001B000612000F07BF8732000F078F86B2000F0ED
:1001C00075F82C2000F072F84D2000F06FF86120D7
:1001D00000F06CF86B2000F069F8652000F066F81C
:1001E000662000F063F8692000F060F86C2000F0F1
:1001F0005DF8652000F05AF8212000F057F80A2039
:1002000000F054F80D2000F051F80D490DA000F059
:100210003DF8114911A000F039F80948007800F0C4
:1002200045F8422000F042F809E0FFF7A7FFC4B20A
:10023000204600F03BF8611CC8B200F037F8F4E744
:1002400000000020675F6368617227732061646447
:1002500072203D200000000070030008675F6368A3
:1002600061723227732061646472203D20000000B7
:1002700070B503460C4603E00D780570491C401C20
:10028000151EA2F10102F7D170BD000070B5054640
:100290000C46284600F038F8204600F013F802A07B
:1002A00000F032F870BD00000D0A0000044900BFE4
:1002B0000A6802F08002002AFAD048607047000005
:1002C0000038014070B506460EA000F01DF8072565
:1002D00014E0A80026FA00F000F00F04002C07DB61
:1002E000092C05DC04F13001C8B2FFF7DFFF04E0A0
:1002F00004F13701C8B2FFF7D9FF6D1E002DE8DA0F
:1003000070BD00003078000010B5044603E020788E
:10031000FFF7CCFF641C20780028F8D110BD000046
:1003200010491148026844F204031A4302600F485E
:10033000026822F0F0020260026842F0900202605D
:10034000026822F470620260026842F48062026015
:1003500045228A6042F20C02CA600A6922F44052C5
:100360000A6170470038014018100240040801403B
:100370004200000094030008000000200400000078
:1003800044000008980300080400002060000000FA
:080390006000000841000000BC
:0400000508000009E6
:00000001FF
