:020000040800F2
:100000000000000009000008DFF820D00848094976
:10001000094A00F02DF809484FF00001084A00F0A5
:1000200034F800F03DF807488047000000500020F9
:10003000C0020020C002000804000000C40200202A
:10004000C0000000A100002001B500BF0098411EC3
:1000500000910028FAD108BD044900BF086800F0EB
:1000600020000028FAD0486870470000003801409E
:1000700070B503460C4603E00D780570491C401C22
:10008000151EA2F10102F7D170BD30B5034601E0A3
:100090000170401C141EA2F10102F9D130BD000014
:1000A00000F0E4F80120FFF7CFFF312000F0A4F8C2
:1000B000302000F0A1F8302000F09EF8612000F020
:1000C0009BF8732000F098F86B2000F095F82C2036
:1000D00000F092F84D2000F08FF8612000F08CF8CD
:1000E0006B2000F089F8652000F086F8662000F0AB
:1000F00083F8692000F080F86C2000F07DF865201E
:1001000000F07AF8212000F077F80A2000F074F867
:100110000D2000F071F8154915A000F05DF819499F
:1001200019A000F059F81D4801681DA000F054F80E
:100130001F4801681FA000F04FF82248016822A064
:1001400000F04AF80948007800F056F8422000F024
:1001500053F809E0FFF780FFC4B2204600F04CF8E6
:10016000611CC8B200F048F8F4E70000C0020020AB
:10017000675F6368617227732061646472203D2049
:1001800000000000BC020020675F636861723227D4
:10019000732061646472203D20000000C4020020CE
:1001A000675F415B305D27732056414C203D200046
:1001B00004030020675F425B305D27732056414C8B
:1001C000203D200044030020735F435B305D2773B4
:1001D0002056414C203D200070B505460C4628466F
:1001E00000F038F8204600F013F802A000F032F8D2
:1001F00070BD00000D0A0000044900BF0A6802F04B
:100200008002002AFAD048607047000000380140A0
:1002100070B506460EA000F01DF8072514E0A800F2
:1002200026FA00F000F00F04002C07DB092C05DC97
:1002300004F13001C8B2FFF7DFFF04E004F1370139
:10024000C8B2FFF7D9FF6D1E002DE8DA70BD0000BF
:100250003078000010B5044603E02078FFF7CCFFAB
:10026000641C20780028F8D110BD00001049114806
:10027000026844F204031A4302600F48026822F045
:10028000F0020260026842F090020260026822F40A
:1002900070620260026842F48062026045228A60F5
:1002A00042F20C02CA600A6922F440520A617047A5
:1002B00000380140181002400408014042000000CC
:0402C00041000000F9
:0400000500000000F7
:00000001FF
