:020000040800F2
:1000000000000000A500000800F002F800F03AF837
:100010000AA090E8000C82448344AAF10107DA4563
:1000200001D100F02FF8AFF2090EBAE80F0013F07B
:10003000010F18BFFB1A43F0010318470403000027
:1000400024030000103A24BF78C878C1FAD85207B8
:1000500024BF30C830C144BF04680C607047000042
:100060000023002400250026103A28BF78C1FBD8C1
:10007000520728BF30C148BF0B6070471FB51FBD76
:1000800010B510BD00F014F81146FFF7F7FF00F0AF
:1000900075F800F032F803B4FFF7F2FF03BC00F08C
:1000A00053F80000DFF804D000F068F8005000209A
:1000B000754600F02BF8AE4605006946534620F021
:1000C0000700854618B020B500F024F8BDE82040B0
:1000D0004FF000064FF000074FF000084FF0000B04
:1000E00021F00701AC46ACE8C009ACE8C009ACE8B7
:1000F000C009ACE8C0098D46704710B50446AFF39F
:1001000000802046BDE81040FFF7C5BF004870479B
:100110000C00002000B54FF0160085B0694601AA1A
:100120000A60ABBE0198002802BF0548C01D20F040
:1001300007000399029A049B05B000BD0900000066
:100140006C0000207047000001491820ABBEFEE79C
:100150002600020001B500BF0098411E0091002852
:10016000FAD108BD044900BF086800F0200000284B
:10017000FAD04868704700000038014000F0B6F837
:100180000120FFF7E7FF312000F076F8302000F083
:1001900073F8302000F070F8612000F06DF87320E3
:1001A00000F06AF86B2000F067F82C2000F064F88B
:1001B0004D2000F061F8612000F05EF86B2000F047
:1001C0005BF8652000F058F8662000F055F86920CB
:1001D00000F052F86C2000F04FF8652000F04CF869
:1001E000212000F049F80A2000F046F80D2000F028
:1001F00043F80D490DA000F02FF8114911A000F0AF
:100200002BF80948007800F037F8422000F034F865
:1002100009E0FFF7A7FFC4B2204600F02DF8611CEB
:10022000C8B200F029F8F4E700000020675F6368B7
:10023000617227732061646472203D200000000019
:100240003C030008675F6368617232277320616452
:100250006472203D2000000070B505460C4628461B
:1002600000F038F8204600F013F802A000F032F851
:1002700070BD00000D0A0000044900BF0A6802F0CA
:100280008002002AFAD04860704700000038014020
:1002900070B506460EA000F01DF8072514E0A80072
:1002A00026FA00F000F00F04002C07DB092C05DC17
:1002B00004F13001C8B2FFF7DFFF04E004F13701B9
:1002C000C8B2FFF7D9FF6D1E002DE8DA70BD00003F
:1002D0003078000010B5044603E02078FFF7CCFF2B
:1002E000641C20780028F8D110BD00001049114886
:1002F000026844F204031A4302600F48026822F0C5
:10030000F0020260026842F090020260026822F489
:1003100070620260026842F48062026045228A6074
:1003200042F20C02CA600A6922F440520A61704724
:10033000003801401810024004080140420000004B
:1003400060030008000000200C00000044000008CA
:100350006C0300080C000020600000006000000832
:0C03600041000000000000000000000050
:04000005080000A54A
:00000001FF
