:020000040800F2
:100000000000000009000008DFF824D009480A4970
:100010000A4A00F035F80A480A490B4A00F030F85D
:100020000A484FF000010A4A00F037F809488047B3
:10003000005000200000002000000008F402000032
:10004000F4020020F402000804000000F80200207E
:10005000C0000000B100002001B500BF0098411EA3
:1000600000910028FAD108BD044900BF086800F0DB
:1000700020000028FAD0486870470000003801408E
:1000800070B503460C4603E00D780570491C401C12
:10009000151EA2F10102F7D170BD30B5034601E093
:1000A0000170401C141EA2F10102F9D130BD000004
:1000B000344D00F0F5F80120FFF7CEFF312000F0BD
:1000C000B5F8302000F0B2F8302000F0AFF8612031
:1000D00000F0ACF8732000F0A9F86B2000F0A6F84F
:1000E0002C2000F0A3F84D2000F0A0F8612000F0D3
:1000F0009DF86B2000F09AF8652000F097F86620D4
:1001000000F094F8692000F091F86C2000F08EF86F
:10011000652000F08BF8212000F088F80A2000F01C
:1001200085F80D2000F082F87B2117A0A8471C4914
:100130001CA000F06BF8204920A000F067F82448CC
:10014000016824A000F062F82648016826A000F0AB
:100150005DF82948016829A000F058F81048007897
:1001600000F064F8422000F061F809E0FFF77CFF3E
:10017000C4B2204600F05AF8611CC8B200F056F82C
:10018000F4E700000D0200207465737420666F723E
:1001900020746578742072656C6F636174652000EB
:1001A000F4020020675F63686172277320616464F2
:1001B00072203D2000000000F0020020675F6368AD
:1001C00061723227732061646472203D2000000058
:1001D000F8020020675F415B305D27732056414C79
:1001E000203D200038030020675F425B305D2773AD
:1001F0002056414C203D200078030020735F435B74
:10020000305D27732056414C203D200070B50546D7
:100210000C46284600F038F8204600F013F802A0FB
:1002200000F032F870BD00000D0A0000044900BF64
:100230000A6802F08002002AFAD048607047000085
:100240000038014070B506460EA000F01DF80725E5
:1002500014E0A80026FA00F000F00F04002C07DBE1
:10026000092C05DC04F13001C8B2FFF7DFFF04E020
:1002700004F13701C8B2FFF7D9FF6D1E002DE8DA8F
:1002800070BD00003078000010B5044603E020780F
:10029000FFF7CCFF641C20780028F8D110BD0000C7
:1002A00010491148026844F204031A4302600F48DF
:1002B000026822F0F0020260026842F090020260DE
:1002C000026822F470620260026842F48062026096
:1002D00045228A6042F20C02CA600A6922F4405246
:1002E0000A617047003801401810024004080140BC
:0802F000420000004100000083
:0400000500000000F7
:00000001FF
